:020000040800F2
:10000000F0060020490100081D2700083F200008D5
:100010001927000801020008952B000800000000C5
:100020000000000000000000000000004D27000854
:100030000502000800000000212700084F270008E3
:100040006301000863010008630100086301000800
:1000500063010008630100086301000863010008F0
:1000600063010008630100086301000863010008E0
:1000700063010008630100086301000863010008D0
:1000800063010008630100086301000863010008C0
:10009000630100086301000863010008070200080B
:1000A00063010008630100086301000863010008A0
:1000B0006301000863010008630100086301000890
:1000C0006301000863010008630100086301000880
:1000D00063010008852B0008630100086301000824
:1000E0006301000863010008630100086301000860
:1000F0006301000863010008630100086301000850
:10010000630100086301000863010008630100083F
:10011000630100086301000863010008630100082F
:10012000630100086301000863010008630100081F
:10013000DFF810D000F052F8004800470130000806
:10014000AFF30080F00600200648804706480047CD
:10015000FEE7FEE7FEE7FEE7FEE7FEE7FEE7FEE777
:10016000FEE7FEE7BD27000831010008202A04DB76
:10017000203A21FA02F00021704721FA02F3D04020
:10018000C2F120029140084319467047D2B201E003
:1001900000F8012B491EFBD270470022F6E710B58C
:1001A00013460A4604461946FFF7F0FF204610BDE5
:1001B00030B50B46014600202022012409E021FA37
:1001C00002F59D4205D303FA02F5491B04FA02F534
:1001D0002844151EA2F10102F1DC30BD064C074D8A
:1001E00006E0E06840F0010394E807009847103407
:1001F000AC42F6D3FFF7A0FF683000088830000853
:1002000000BFFEE7704710B54FF4807000F0A6FA0B
:1002100010BD72B600BFFEE70021074AD161074951
:10022000096941F00401054A11611146096941F06B
:100230004001116170470000D00000200020024002
:100240000021074AD1610749096941F00201054AC5
:10025000116111464861096941F04001116170471F
:10026000D0000020002002400022054BDA61054A40
:10027000126942F00102034B1A61018070470000CD
:10028000D00000200020024000201E49C96801F073
:10029000100139B11C49C96941F002011A4AD16102
:1002A00040F010001749C96801F0040139B116493E
:1002B000C96941F00101144AD16140F004001149BB
:1002C000C96901F0010169B10F49C96941F004012F
:1002D0000D4AD16100BF0B49C96921F00101094AEA
:1002E000D16100BF00BF40F20111884206D105492B
:1002F000C96921F00101034AD16101E00149C860E7
:1003000000BF704700200240D000002070B50446B6
:1003100000F0D8FB054609E0601C38B124B100F0BC
:10032000D1FB401BA04201D9032070BD1248C06818
:1003300000F001000028EFD10F48C06800F0200055
:1003400020B100BF20200C49C86000BF0A48C06827
:1003500000F0100048B90848C06900F0010020B959
:100360000548C06800F0040018B1FFF78DFF0120B8
:10037000DBE70020D9E70000002002400146002210
:1003800091F82100022808D00420886300BF0020D3
:1003900081F8200000BF012070470868006820F045
:1003A0000E000B6818600868006820F001000B68F8
:1003B000186091F8403001209840CB6B58600120C4
:1003C00081F8210000BF002081F8200000BF104606
:1003D000E2E7000070B50446002594F821000228E9
:1003E00003D00420A0630125C1E02068006820F04C
:1003F0000E00216808602068006820F00100216874
:1004000008605C492068884252D95A497839206886
:10041000884201D1012047E056496439206888426A
:1004200001D1102040E0534950392068884201D161
:10043000801539E04F493C392068884201D1801449
:1004400032E04C4928392068884202D14FF480308C
:100450002AE0484914392068884202D14FF48010BC
:1004600022E044492068884201D140041CE042490E
:100470002068884201D1012016E03F4914312068EC
:10048000884201D110200FE03B4928312068884282
:1004900001D1801508E038493C312068884201D1FB
:1004A000801401E04FF480303349091F086051E0A7
:1004B000304978392068884201D1012047E02D4930
:1004C00064392068884201D1102040E02949503920
:1004D0002068884201D1801539E026493C392068DE
:1004E000884201D1801432E02249283920688842AC
:1004F00002D14FF480302AE01E4914392068884226
:1005000002D14FF4801022E01A492068884201D1BC
:1005100040041CE018492068884201D1012016E0FF
:10052000154914312068884201D110200FE012498A
:1005300028312068884201D1801508E00E493C31FD
:100540002068884201D1801401E04FF480300949CD
:1005500080394860012084F8210000BF002084F821
:10056000200000BF606B10B12046616B88472846B1
:1005700070BD0000800002400804024070B50446CF
:1005800000F0A0FA06462546681C10B10448007821
:10059000054400BF00F096FA801BA842FAD370BD54
:1005A000080000202DE9F04104460E4601270025F1
:1005B00000BF2648007E012802D10220BDE8F0815C
:1005C00001202249087600BF2068022813D14CF28E
:1005D0005030FFF79BFE90BB0120FFF71DFE4CF251
:1005E0005030FFF793FE07461948006920F00400D9
:1005F0001749086123E04CF25030FFF787FEF0B94D
:100600004FF0FF303060A56812E02846FFF718FE73
:100610004CF25030FFF77AFE07460D48006920F093
:1006200002000B4908610FB1356007E005F5006570
:10063000D4E9021001EBC020A842E6D800BF00BFF9
:1006400000200249087600BF3846B7E7D0000020F6
:10065000002002400348006940F080000149086121
:1006600000207047002002402DE9FE4F05468B46D2
:1006700017469846012600240020029000BF244817
:10068000007E012802D10220BDE8FE8F0120204912
:10069000087600BF4CF25030FFF738FE064686BBA6
:1006A000012D02D10120029006E0022D02D102208C
:1006B000029001E00420029000241EE02201B946CD
:1006C000C24648465146FFF751FD80B201900220D4
:1006D00000FB04B000900199FFF7C6FD4CF25030CA
:1006E000FFF714FE06460B48006920F00100094997
:1006F000086106B104E0601CC4B202988442DDDBEC
:1007000000BF00BF00200249087600BF3046BBE7AB
:10071000D00000200020024000200849096901F0B3
:10072000800151B10649054A5160064951601146A0
:10073000096901F0800101B10120704700200240E9
:1007400023016745AB89EFCDB0F5807F02D1012150
:10075000014A1170704700002900002010B50446BE
:1007600004480068204020B1024804602046FFF79A
:10077000EBFF10BD140401402DE9F84702460023A9
:100780009C467BE14FF0010808FA03F4D1F80080A1
:1007900008EA0400A0427DD1DFF8F4A2D1F8048079
:1007A000A8EB0A09D0453AD014DCB8F1030F50D0B9
:1007B00009DCB8F1000F31D0B8F1010F1CD0B8F14D
:1007C000020F49D120E0B8F1110F18D0B8F1120F83
:1007D00042D11EE0B9F5881F25D006DCB9F5803F6F
:1007E00020D0B9F5801F37D11AE0B9F5001F18D015
:1007F000B9F5041F30D117E0D1F80CC02DE0D1F8C5
:100800000C8008F1040C28E0D1F80C8008F1080CE9
:1008100023E0D1F80C8008F10C0C1EE000BF00BFF3
:1008200000BF00BF00BF00BFD1F80880B8F1000FC3
:1008300002D14FF0040C0BE0D1F80880B8F1010FA1
:1008400003D14FF0080C146102E04FF0080C546122
:1008500003E04FF0000C00E000BF00BFFF2801D80C
:10086000904601E002F104084646FF2802D84FEA0C
:10087000830803E0A3F108084FEA88084746D6F842
:1008800000804FF00F0909FA07F928EA09080CFA65
:1008900007F900E07AE048EA0908C6F80080D1F8D4
:1008A000048008F08058B8F1805F6FD100BFDFF896
:1008B000E481D8F8188048F00108DFF8D891C9F829
:1008C0001880C846D8F8188008F00108CDF80080D4
:1008D00000BF00BF4FEAB9384FEA930958F82950D2
:1008E0004FEA83784FEA18794FF00F0808FA09F8B1
:1008F00025EA0805DFF8A081424502D14FF0000843
:1009000024E0DFF89881424502D14FF001081DE054
:10091000DFF88C81424502D14FF0020816E0DFF883
:100920008481424502D14FF003080FE0DFF878815F
:10093000424502D14FF0040808E0DFF870814245DB
:1009400002D14FF0050801E04FF006084FEA837925
:100950004FEA197908FA09F848EA0505DFF85081E5
:100960004FEA930948F82950D1F8048008F4801818
:10097000B8F5801F0BD1DFF83C81D8F8008048EA39
:100980000008DFF83091C9F800800AE075E0DFF870
:100990002481D8F8008028EA0008DFF81891C9F807
:1009A0000080D1F8048008F40018B8F5001F0ED1BB
:1009B000DFF8008108F10408D8F8008048EA000850
:1009C000DFF8F09009F10409C9F800800DE0DFF8C4
:1009D000E48008F10408D8F8008028EA0008DFF86D
:1009E000D49009F10409C9F80080D1F8048008F412
:1009F0000038B8F5003F0ED1DFF8B880A8F1040840
:100A0000D8F8008048EA0008DFF8A890A9F10409A6
:100A1000C9F800800DE0DFF89C80A8F10408D8F840
:100A2000008028EA0008DFF88C90A9F10409C9F8D1
:100A30000080D1F8048008F48038B8F5803F0ED1EA
:100A4000DFF87080A8F10808D8F8008048EA0008AC
:100A5000DFF86090A9F10809C9F800800DE0DFF81F
:100A60005480A8F10808D8F8008028EA0008DFF8C8
:100A70004490A9F10809C9F800805B1CD1F80080F6
:100A800028FA03F8B8F1000F7FF47CAEBDE8F887D0
:100A9000000011100010024000080140000C01404D
:100AA000001001400014014000180140001C0140EA
:100AB00008000140080401400AB1016101E00B0493
:100AC0000361704701480068704700000000002083
:100AD00070B504460CB9012070BD94F83D0028B9EA
:100AE000002084F83C00204600F046FB242084F8D7
:100AF0003D002068006820F001002168086020683F
:100B0000006840F40040216808602068006820F414
:100B100000402168086000F009FD05465C496068F6
:100B2000884206D85B48854201D2012007E00020B8
:100B300005E05948854201D2012000E0002001284B
:100B400000D1C9E75548B5FBF0F62068406820F0B1
:100B50003F003043216848604D496068884201D8B1
:100B6000701C07E04FF4967070434FF47A71B0FB3D
:100B7000F1F0401C2168096A21F03F010843216817
:100B8000086243496068884214D8681E6168490059
:100B9000B0FBF1F0401CC0F30B00042801D204208C
:100BA0003DE0681E61684900B0FBF1F0401CC0F3F5
:100BB0000B0034E0A06838B9681E616801EB4101A0
:100BC000B0FBF1F0401C0AE0681E616801EBC10255
:100BD00002EB0111B0FBF1F0401C40F48040C0F387
:100BE0000B0008B901201AE0A06848B9681E6168C6
:100BF00001EB4101B0FBF1F0401CC0F30B000CE035
:100C0000681E616801EBC10202EB0111B0FBF1F05B
:100C1000401CC0F30B0040F4804040F400402168C9
:100C2000C9694CF6FF72914308432168C861D4E951
:100C3000070108432168096821F0C00108432168C1
:100C40000860D4E9031008432168896848F2FF323C
:100C50009143084321688860D4E90501084321686D
:100C6000C96821F0FF0108432168C8602068006856
:100C700040F001002168086000202064202084F8F2
:100C80003D000020206384F83E0000BF24E7000000
:100C9000A086010080841E0000093D0040420F0034
:100CA0002DE9FE4F04460F4690469946DDE90CAB10
:100CB0000E9E00200290FFF705FF054694F83D00C8
:100CC000202872D119230122CE492046009501F037
:100CD0002AFB10B10220BDE8FE8F00BF94F83C0053
:100CE000012801D10220F6E7012084F83C0000BF72
:100CF0002068006800F0010028B92068006840F012
:100D00000100216808602068006820F40060216804
:100D10000860222084F83D00402084F83E00002036
:100D20002064C4F824A0A4F82AB0608D2085B648B9
:100D3000E0624B46424639462046CDE9006501F067
:100D40009FF908B10120C6E7208D88B900BF0020B7
:100D5000019020684069019020688069019000BF7F
:100D600000BF2068006840F40070216808604BE014
:100D7000208D01281AD12068006820F48060216845
:100D8000086072B600BF00200190206840690190A1
:100D900020688069019000BF00BF2068006840F4AF
:100DA00000702168086062B62EE029E1208D0228DB
:100DB00019D12068006840F400602168086072B6AC
:100DC00000BF002001902068406901902068806980
:100DD000019000BF00BF2068006820F48060216897
:100DE000086062B610E02068006840F48060216806
:100DF000086000BF002001902068406901902068D1
:100E00008069019000BF00BFEBE0208D03287DD8F2
:100E1000208D012815D12A463146204601F05FFB7E
:100E200008B1012057E720680069616A0870606AAC
:100E3000401C6062208D401E2085608D401E6085B4
:100E4000CFE0208D02282CD1334600226F49204666
:100E5000009501F068FA08B101203CE772B62068FD
:100E6000006840F400702168086020680069616AC9
:100E70000870606A401C6062208D401E2085608D75
:100E8000401E608562B620680069616A0870606A09
:100E9000401C6062208D401E2085608D401E608554
:100EA0009FE03346002259492046009501F03BFA65
:100EB00008B101200FE72068006820F480602168F5
:100EC000086072B620680069616A0870606A401C38
:100ED0006062208D401E2085608D401E60854C48DC
:100EE00000681921B0FBF1F04FF47A71B0FBF1F01A
:100EF000C0EBC00000EB8000029000BF0298401ED3
:100F000002900298A8B90020206300E039E0202078
:100F100084F83D00002084F83E00206C40F0200062
:100F2000206462B600BF002084F83C0000BF0120AE
:100F3000D1E620684069C0F380000028DED0206838
:100F4000006840F400702168086020680069616AE8
:100F50000870606A401C6062208D401E2085608D94
:100F6000401E608562B620680069616A0870606A28
:100F7000401C6062208D401E2085608D401E608573
:100F80002FE02A463146204601F0A9FA08B1012097
:100F9000A1E620680069616A0870606A401C6062AE
:100FA000208D401E2085608D401E60852068406930
:100FB000C0F38000A8B1208D032805D12068006807
:100FC00020F480602168086020680069616A087008
:100FD000606A401C6062208D401E2085608D401E2E
:100FE0006085208D00287FF410AF202084F83D001C
:100FF000002084F83E0000BF84F83C0000BF6AE691
:10100000022068E6020010000000FFFF040001005B
:101010000C0000202DE9FC5F04460F4690469946DF
:10102000DDE90CAB0E9EFFF74DFD054694F83D0043
:1010300020287DD1192301224D492046009501F039
:1010400072F910B10220BDE8FC9F00BF94F83C008B
:10105000012801D10220F6E7012084F83C0000BFFE
:101060002068006800F0010028B92068006840F09E
:101070000100216808602068006820F40060216891
:101080000860212084F83D00402084F83E000020C4
:101090002064C4F824A0A4F82AB0608D20853548C7
:1010A000E0624B46424639462046CDE9006501F0F4
:1010B00097F808B10120C6E731E02A4631462046BC
:1010C00001F052FA50B1206C042805D12068006864
:1010D00040F40070216808600120B4E7606A00787D
:1010E00021680861606A401C6062208D401E208576
:1010F000608D401E608520684069C0F3800070B13B
:10110000208D60B1606A007821680861606A401CC7
:101110006062208D401E2085608D401E6085208D80
:101120000028CAD12A463146204601F0C9F800E01D
:101130001CE050B1206C042805D12068006840F400
:1011400000702168086001207DE72068006840F495
:10115000007021680860202084F83D00002084F899
:101160003E0000BF84F83C0000BF6CE702206AE745
:10117000020010000000FFFF10B586B004460020FA
:10118000029003900490059016492068884226D169
:1011900000BF1548806940F008001349886108467F
:1011A000806900F00800019000BF00BF4FF440606C
:1011B0000290122003900320059002A90B48FFF72C
:1011C000DBFA00BF0848C06940F480000649C861E6
:1011D0000846C06900F48000019000BF00BF06B05F
:1011E00010BD00000058004000100240000C0140FB
:1011F00003480068034909780844014908607047BA
:10120000000000200800002010B50848006840F0E9
:10121000100006490860032000F0A8F80F2000F035
:1012200007F800F02BF8002010BD0000002002405D
:1012300070B504460E4800784FF47A71B1FBF0F0B7
:101240000C490968B1FBF0F5284600F0F9FB08B13C
:10125000012070BD102C07D200222146501E00F044
:1012600047F80548046001E00120F2E70020F0E7BC
:10127000080000200C0000200400002008B500BF7A
:101280001148806940F001000F4988610846806973
:1012900000F00100009000BF00BF00BF0846C06919
:1012A00040F08050C8610846C06900F0805000904E
:1012B00000BF00BF00BF0549486820F0E06040F073
:1012C0000070486000BF08BD0010024000000140EF
:1012D00001460846002809DB00F01F0301229A405E
:1012E00043099B0003F1E023C3F8002100BF7047CE
:1012F0002DE9F05F80460D461646002701F086FC7A
:10130000074639462A46334601F00700C0F1070A6E
:10131000BAF1040F02D94FF0040A01E0C0F1070A44
:10132000D14600F1040ABAF1070F02D24FF0000AC9
:1013300001E0A0F1030AD4464FF0010A0AFA09FAC3
:10134000AAF1010A0AEA020A0AFA0CFA4FF0010BA2
:101350000BFA0CFBABF1010B0BEA030B4AEA0B0493
:101360002146404601F05AFCBDE8F09F00BF00F066
:101370000702064B19684FF6FF031940044B0B4355
:1013800043EA0221014B196000BF70470CED00E0F9
:101390000000FA0570B504460D460CB9012070BD79
:1013A0005A48006800F00700A8420ED2574800686B
:1013B00020F007002843554908600846006800F0FF
:1013C0000700A84201D00120E9E7207800F00200E0
:1013D00002281DD1207800F00400042805D14C48D3
:1013E000406840F4E0604A494860207800F0080016
:1013F000082805D14648406840F460504449486098
:101400004348406820F0F000A16808434049486024
:10141000207800F0010078B36068012806D13C48CC
:10142000006800F4003090B90120B8E76068022835
:1014300006D13748006800F0007040B90120AEE7DF
:101440003348006800F0020008B90120A7E73048DF
:10145000406820F00300616808432D494860FFF7A9
:1014600031FB064609E0FFF72DFB801B41F2883176
:10147000884202D9032092E707E02548406800F03F
:101480000C006168B0EB810FEDD12048006800F0DE
:101490000700A8420ED91D48006820F00700284325
:1014A0001A4908600846006800F00700A84201D009
:1014B000012074E7207800F00400042807D11448C4
:1014C000406820F4E060E1680843114948602078F2
:1014D00000F00800082808D10D48406820F460504A
:1014E000216940EAC1000A49486000F03FF8084914
:1014F0004968C1F30311074A515CC84006490860B6
:1015000006480068FFF794FE002048E700200240EC
:10151000001002404E3000080C00002004000020A3
:1015200001480068704700000C00002000B5FFF77C
:10153000F7FF04494968C1F30221034A515CC840DE
:1015400000BD0000001002405E30000800B5FFF74B
:10155000E7FF04494968C1F3C221034A515CC8400E
:1015600000BD0000001002405E30000870B5002190
:101570000022002400230020134D696801F00C05AF
:10158000F5B1042D02D0082D19D101E00F4819E062
:101590000F4DC1F38346AB5D01F4803555B10A4D63
:1015A0006D68C5F340450B4E725D084D5D43B5FB5C
:1015B000F2F402E0084D03FB05F4204602E000BF10
:1015C000024800BF00BF70BD0010024000127A0048
:1015D0003C3000084C30000800093D00F8B50446D6
:1015E0000CB90120F8BD207800F00100002878D067
:1015F000F848406800F00C0004280CD0F54840681A
:1016000000F00C00082811D1F248406800F4803046
:10161000B0F5803F0AD1EF48006800F400300028A0
:101620005FD0606800285CD10120DBE700BF606804
:10163000B0F5803F06D1E748006840F48030E549C6
:10164000086028E0606858B9E248006820F48030FB
:10165000E04908600846006820F4802008601AE02D
:101660006068B0F5A02F0BD1DA48006840F4802004
:10167000D84908600846006840F4803008600AE0F5
:10168000D448006820F48030D249086008460068D9
:1016900020F48020086000BF606888B1FFF712FA6C
:1016A000054606E0FFF70EFA401B642801D9032027
:1016B00098E7C848006800F400300028F2D010E035
:1016C000FFF700FA054606E0FFF7FCF9401B642827
:1016D00001D9032086E7BF48006800F400300028E5
:1016E000F2D1207800F00200022857D1B9484068B2
:1016F00000F00C0050B1B748406800F00C0008281A
:1017000018D1B448406800F4803098B9B1480068F6
:1017100000F0020020B12069012801D0012061E71A
:10172000AC48006820F0F800616940EAC100A949AE
:10173000086033E02069E8B10120A7490860FFF79D
:10174000C1F9054606E0FFF7BDF9401B022801D9A3
:10175000032047E79F48006800F002000028F2D00D
:101760009C48006820F0F800616940EAC10099498E
:10177000086013E0002098490860FFF7A3F90546C8
:1017800006E0FFF79FF9401B022801D9032029E753
:101790009048006800F002000028F2D1207800F0A4
:1017A000080008282DD1A069B8B101208B49086034
:1017B000FFF788F9054606E0FFF784F9401B022889
:1017C00001D903200EE78348406A00F00200002898
:1017D000F2D0012000F0A6FF13E000207F4908604E
:1017E000FFF770F9054606E0FFF76CF9401B022889
:1017F00001D90320F6E67748406A00F0020000288D
:10180000F2D1207800F00400042873D10027714839
:10181000C06900F0805070B900BF6E48C06940F0E8
:1018200080506C49C8610846C06900F08050009043
:1018300000BF00BF01276A48006800F48070B0B99B
:101840006748006840F4807065490860FFF73AF91E
:10185000054606E0FFF736F9401B642801D903204E
:10186000C0E65F48006800F480700028F2D000BF36
:10187000E068012806D15748006A40F00100554948
:10188000086227E0E06858B95248006A20F0010079
:10189000504908620846006A20F00400086219E016
:1018A000E06805280BD14B48006A40F00400494924
:1018B00008620846006A40F0010008620AE04548F4
:1018C000006A20F00100434908620846006A20F0DF
:1018D0000400086200BFE068A0B1FFF7F3F8054616
:1018E00009E0FFF7EFF8401B41F28831884202D946
:1018F000032077E622E03748006A00F00200002863
:10190000EFD012E0FFF7DEF8054608E0FFF7DAF85F
:10191000401B41F28831884201D9032062E62D48FC
:10192000006A00F002000028F0D1012F05D12948FB
:10193000C06920F080502749C86100BFE069C8B382
:101940002448406800F00C00082860D0E0690228B4
:1019500048D1002020490866FFF7B4F8054606E0A4
:10196000FFF7B0F8401B022801D903203AE61948D6
:10197000006800F000700028F2D1206AB0F5803FC6
:1019800007D11448406820F40030A1680843114989
:101990004860D4E9080108430E49496821F47411EC
:1019A00008430C49486001200B490866FFF78AF894
:1019B000054607E03DE0FFF785F8401B022801D906
:1019C00003200FE60348006800F000700028F2D002
:1019D0002FE000000010024000004242800442421A
:1019E00000700040002014490866FFF76BF80546B8
:1019F00006E0FFF767F8401B022801D90320F1E554
:101A00000E48006800F000700028F2D111E0E06993
:101A1000012800D1E6E50948466806F48031206ACD
:101A2000814204D106F47011606A814201D0012024
:101A3000D8E50020D6E50000000042420010024038
:101A400070B504462546681EB0F1807F01D30120A1
:101A50000FE0681E4FF0E02148610F214FF0FF308A
:101A600001F0DCF800204FF0E021886107200861D8
:101A7000002070BDF8B504460E46174694F84200A3
:101A800020282ED106B10FB90120F8BD0120206316
:101A9000002060633A463146204600F0DDFF0546EF
:101AA000EDB9206B012819D100BF002000902068FB
:101AB0000068009020684068009000BF00BF00BF31
:101AC00000BF21680C3151E8001F41F0100021686F
:101AD0000C3141E80002002AF3D100E0012528463C
:101AE000D3E70220D1E7000038B504460D46FEF7E3
:101AF000E9FF1E4908601E492068884235D11D480B
:101B000005801D4800881B49098808441A49088037
:101B1000FEF702FE01F082F901F010FAFEF79AFDDD
:101B20004FF400711548FEF738FB00BF002000900D
:101B300013480068006800901148006840680090F1
:101B400000BF00BF00BF002000900D480068006883
:101B500000900B4800684068009000BF00BF4FF441
:101B6000007206490648FFF785FF38BD1C000020BB
:101B7000003801401000002012000020F00000207A
:101B800084000020704700002DE9F84F04462068CB
:101B900005682068C668206847694FF00009CA4692
:101BA00005F00F09B9F1000F0AD105F0200038B196
:101BB00006F0200020B1204600F051FEBDE8F88F6D
:101BC000B9F1000F7BD007F0010018B906F490704E
:101BD000002874D005F0010030B106F4807018B10F
:101BE000606C40F00100606405F0040030B107F063
:101BF000010018B1606C40F00200606405F0020062
:101C000030B107F0010018B1606C40F0040060646E
:101C100005F0080048B106F0200010B907F00100F7
:101C200018B1606C40F008006064606C002845D01A
:101C300005F0200028B106F0200010B1204600F089
:101C40000EFE20684069C0F3801A606C00F0080046
:101C500010B9BAF1000F2CD0204600F0BAFD206870
:101C6000406900F0400000B300BF00BF216814319C
:101C700051E8001F21F040002168143141E80002C2
:101C8000002AF3D100BFE06B50B17748E16B4863A5
:101C9000E06BFEF79FFB88B1E06B416B88470DE07E
:101CA0002046FFF76FFF09E009E02046FFF76AFFD3
:101CB00004E02046FFF766FF002060647EE7206BAB
:101CC000012877D105F01000002873D006F010002D
:101CD0000028FAD000BF0020009020680068009023
:101CE00020684068009000BF00BF2068406900F095
:101CF000400000285FD0E06B006840681FFA80F861
:101D0000B8F1000F55D0A08D404552DDA4F82E80CB
:101D1000E06B8069202843D000BF00BF21680C31F0
:101D200051E8001F21F4807021680C3141E8000265
:101D3000002AF3D100BF00BF00BF2168143151E871
:101D4000001F21F001002168143141E80002002A3F
:101D5000F3D100BF00BF00BF2168143151E8001F5C
:101D600021F040002168143141E80002002AF3D13B
:101D700000BF202084F842000020206300BF00BF85
:101D800021680C3151E8001F21F0100021680C314E
:101D900041E80002002AF3D100BFE06BFEF7EEFA43
:101DA00002206063A08DE28D801A81B22046FFF789
:101DB0009BFE03E742E0A08DE18D401A1FFA80F8F8
:101DC000E08DD0B3B8F1000F37D000BF00BF21685D
:101DD0000C3151E8001F21F4907021680C3141E86A
:101DE0000002002AF3D100BF00BF00BF21681431F8
:101DF00051E8001F21F001002168143141E8000280
:101E0000002AF3D100BF202084F842000020206384
:101E100000BF00BF21680C3151E8001F21F0100005
:101E200021680C3141E80002002AF3D100BF0220F2
:101E3000606341462046FFF757FEBFE605F080008D
:101E400030B106F0800018B1204600F025FEB5E65E
:101E500005F0400030B106F0400018B1204600F017
:101E6000EEFCABE600BFA9E6BF27000810B50446AC
:101E70000CB9012010BDA06900B100E000BF94F8CA
:101E8000410028B9002084F84000204600F02AF8DC
:101E9000242084F841002068C06820F400502168A4
:101EA000C860204600F05AFD2068006920F4904088
:101EB000216808612068406920F02A002168486193
:101EC0002068C06840F400502168C8600020606449
:101ED000202084F8410084F842000020606300BFA5
:101EE000C8E7000010B586B00446002002900390B9
:101EF000049005901E492068884236D100BF1D48D5
:101F0000806940F480401B4988610846806900F47C
:101F10008040019000BF00BF00BF0846806940F0CC
:101F2000040088610846806900F00400019000BF49
:101F300000BF48150290022003900320059002A9DB
:101F40000D48FEF719FC4FF48060029000200390CA
:101F5000049002A90848FEF70FFC00220521252065
:101F6000FFF7C6F92520FFF7B3F906B010BD000052
:101F700000380140001002400008014070472DE980
:101F8000F84F04460E46174699464FF0000A94F85B
:101F90004100202850D106B117B90120BDE8F88FC3
:101FA00000206064212084F84100FEF78BFD82460A
:101FB000A784E784A068B0F5805F04D1206910B9D8
:101FC0000025B04602E035464FF000081EE05346BB
:101FD000002280212046CDF8009000F08DFD20B138
:101FE000202084F841000320D8E745B9B8F8000064
:101FF000C0F308002168486008F1020803E028786F
:10200000216848606D1CE08C401EE084E08C002854
:10201000DDD15346002240212046CDF8009000F04B
:102020006BFD20B1202084F841000320B6E720207A
:1020300084F841000020B1E70220AFE7704700BFFD
:10204000FEE7014608684069C0F38020B0B16FF434
:1020500080600A68506100200863202081F83D00FC
:10206000002081F83E00086C40F00400086400BFC6
:10207000002081F83C0000BF012070470020FCE7F1
:102080002DE9F84304460F4615469946DDE90886D2
:102090002068006840F4806021680860206800685B
:1020A00040F4807021680860434600224FF001111F
:1020B0002046009600F037F960B12068006800F40F
:1020C0008070B0F5807F02D14FF40070206403204F
:1020D000BDE8F88307F0FE002168086133464246F8
:1020E0003E49204600F07EF908B10120F0E700BF2C
:1020F000002000902068406900902068806900906E
:1021000000BF00BF32464146204600F02DFA50B1D4
:10211000206C042805D12068006840F40070216814
:1021200008600120D4E7B9F1010F03D1E8B22168BA
:10213000086117E0C5F3072021680861324641466F
:10214000204600F011FA50B1206C042805D1206817
:10215000006840F40070216808600120B8E7E8B228
:102160002168086132464146204600F0FDF950B131
:10217000206C042805D12068006840F400702168B4
:1021800008600120A4E72068006840F4807021689E
:102190000860434600224FF001112046009600F0EF
:1021A000C2F858B12068006800F48070B0F5807FF4
:1021B00002D14FF400702064032089E7F8B240F0A8
:1021C000010021680861334642460449204600F078
:1021D00009F908B101207BE7002079E7020001003E
:1021E0002DE9F8430446884615469946DDE9086717
:1021F0002068006840F4807021680860334600223F
:102200004FF001112046009700F08DF860B1206872
:10221000006800F48070B0F5807F02D14FF4007048
:1022200020640320BDE8F88308F0FE0021680861FF
:102230003B4632462149204600F0D4F808B101203F
:10224000F0E700BF002000902068406900902068FF
:102250008069009000BF00BF3A463146204600F03A
:1022600083F950B1206C042805D12068006840F43F
:102270000070216808600120D4E7B9F1010F03D193
:10228000E8B22168086117E0C5F3072021680861FA
:102290003A463146204600F067F950B1206C0428D8
:1022A00005D12068006840F40070216808600120B2
:1022B000B8E7E8B2216808610020B3E70200010036
:1022C00070B504460D46164625E02046FFF7B9FED8
:1022D00008B1012070BD681CE8B1FEF7F3FB801B5C
:1022E000A84200D8BDB920684069C0F3800090B909
:1022F00000202063202084F83D00002084F83E0068
:10230000206C40F02000206400BF002084F83C00D6
:1023100000BF0120DEE720684069C0F3800000288C
:10232000D3D00020D6E72DE9F04104460D461746EC
:102330001E46DDF8188038E0701CA8B3FEF7C2FB1B
:10234000A0EB0800B04200D876BBC5F307400128D7
:102350000AD120684069A9B20840A9B2884201D1D7
:1023600001200BE0002009E020688069A9B2084044
:10237000A9B2884201D1012000E00020B84214D166
:1023800000202063202084F83D00002084F83E00D7
:10239000206C40F02000206400BF002084F83C0046
:1023A00000BF0120BDE8F081FFE7C5F30740012829
:1023B0000AD120684069A9B20840A9B2884201D177
:1023C00001200BE0002009E020688069A9B20840E4
:1023D000A9B2884201D1012000E00020B842ABD070
:1023E0000020DFE72DE9F04104460D4616461F4662
:1023F00058E020684069C0F38020E8B12068006898
:1024000040F40070216808606FF4806021684861C2
:1024100000202063202084F83D00002084F83E0046
:10242000206C40F00400206400BF002084F83C00D1
:1024300000BF0120BDE8F081701C90B3FEF742FBA5
:10244000C01BB04200D866BBC5F3074001280AD1C3
:1024500020684069A9B20840A9B2884201D1012090
:102460000BE0002009E020688069A9B20840A9B209
:10247000884201D1012000E0002090B900202063B3
:10248000202084F83D00002084F83E00206C40F0BD
:102490002000206400BF002084F83C0000BF012021
:1024A000C8E7FFE7C5F3074001280AD12068406963
:1024B000A9B20840A9B2884201D101200BE0002056
:1024C00009E020688069A9B20840A9B2884201D118
:1024D000012000E0002000288BD00020AAE770B582
:1024E00004460D46164637E020684069C0F30010E8
:1024F000A0B16FF010002168486100202063202007
:1025000084F83D00002084F83E00206C206400BF69
:10251000002084F83C0000BF012070BDFEF7D2FA15
:10252000801BA84200D8BDB920684069C0F3801064
:1025300090B900202063202084F83D00002084F81A
:102540003E00206C40F02000206400BF002084F892
:102550003C0000BF0120E0E720684069C0F3801024
:102560000028C1D00020D8E770B504460D461646B5
:1025700025E02046FFF765FD08B1012070BD681C0D
:10258000E8B1FEF79FFA801BA84200D8BDB92068C9
:102590004069C0F3C01090B900202063202084F867
:1025A0003D00002084F83E00206C40F020002064B4
:1025B00000BF002084F83C0000BF0120DEE7206857
:1025C0004069C0F3C0100028D3D00020D6E7000037
:1025D00000B585B00020019002900390049000BFE8
:1025E0002C48806940F010002A49886108468069BB
:1025F00000F01000009000BF00BF00BF08468069D7
:1026000040F0800088610846806900F080000090FA
:1026100000BF00BF00BF0846806940F00400886129
:102620000846806900F00400009000BF00BF00BFB2
:102630000846806940F0080088610846806900F01B
:102640000800009000BF00BF012211461248FEF7AB
:1026500033FA4FF4807001901048029001200390EB
:1026600001A90F48FEF788F8012001900290002090
:1026700003900220049001A90748FEF77DF800228C
:1026800004211720FEF734FE1720FEF721FE05B0C7
:1026900000BD0000001002400008014000001110C1
:1026A000001C014010B50B480B4908600B484860FE
:1026B000002109488160C1604FF48041016100211F
:1026C00041618161C1610162FEF702FA08B1FDF763
:1026D000A0FD10BD0058004030000020A086010081
:1026E00010B50B480B4908604FF4E13048600021F9
:1026F00008488160C16001610C2141610021816154
:10270000C161FFF7B3FB08B1FDF783FD10BD000009
:10271000003801408400002000BFFEE700BFFEE754
:102720007047000008B508490968C9084FF47A7273
:10273000B1FBF2F14143009100BF00BF00994A1E76
:1027400000920029F9D108BD0C000020704710B597
:10275000FEF74EFD10BD00B58FB0282105A8FDF78E
:102760001CFD14216846FDF718FD012005900004AA
:102770000690002007900120099002200C90C103D0
:102780000D914FF4E0110E9105A8FEF727FF08B157
:10279000FDF73FFD0F2000900220019000200290E5
:1027A0004FF4806003900020049002216846FEF7F9
:1027B000F1FD08B1FDF72DFD0FB000BD704770B5FC
:1027C00005466C6A0020E085E0842046FFF7DAF9D0
:1027D00070BD00BF00BF02680C3252E8002F22F427
:1027E000907102680C3242E80013002BF3D100BF55
:1027F00000BF00BF0268143252E8002F22F001012E
:102800000268143242E80013002BF3D100BF016BC1
:1028100001290ED100BF00BF02680C3252E8002F20
:1028200022F0100102680C3242E80013002BF3D1B1
:1028300000BF202180F8421000210163704710B5CD
:1028400004462068C06820F040002168C86020204D
:1028500084F841002046FFF7F1FB002010BDF8B5D9
:10286000044694F84200222875D1A068B0F5805F34
:102870000CD1206950B90025A66A20684068C0F3D1
:1028800008003080A06A801CA06215E0A56A0026BE
:10289000A068B0F5805F03D0A06828B9206918B996
:1028A00020684068287004E02068406800F07F00DD
:1028B0002870A06A401CA062E08D401E80B2E085B6
:1028C000002846D12068C06820F020002168C86038
:1028D0002068C06820F480702168C8602068406962
:1028E00020F0010021684861202084F84200002087
:1028F0006063206B012826D10020206300BF00BF49
:1029000021680C3151E8001F21F0100021680C31C2
:1029100041E80002002AF3D100BF2068006800F0FF
:10292000100010280AD100BF002000902068006825
:10293000009020684068009000BF00BFA18D204635
:10294000FFF7D2F802E02046FFF718FB0020F8BDA1
:1029500001E00020FBE70220F9E7000070B5044623
:102960002168096921F44051E2681143226811612C
:102970002269A1681143626941EA02052168C968B8
:1029800041F20C62914329432268D1602168496970
:1029900021F44071A2691143226851612D4A2168D6
:1029A000914202D1FEF7D2FD01E0FEF7BFFD00EB40
:1029B000C00101EB001162689200B1FBF2F100EB83
:1029C000C00202EB001263689B00B2FBF3F26423C7
:1029D000B2FBF3F202EBC20303EB0212A1EB8201A2
:1029E000322202EB01116422B1FBF2F101F0F0019D
:1029F00000EBC00202EB001263689B00B2FBF3F233
:102A00006423B2FBF3F201EB021200EBC00101EB15
:102A1000001163689B00B1FBF3F100EBC00303EB13
:102A200000136668B600B3FBF6F36426B3FBF6F357
:102A300003EBC30606EB0313A1EB8301322303EB85
:102A400001116423B1FBF3F101F00F01114422687D
:102A5000916070BD0038014010B5034699629A85B7
:102A6000DA8500205864222083F84200186928B1D2
:102A70001868C06840F480701C68E060186840699D
:102A800040F001001C6860611868C06840F02000D8
:102A90001C68E060002010BD014691F8410021282B
:102AA00028D18868B0F5805F0BD1086948B90A6AF7
:102AB0001088C0F308000B685860086A801C086220
:102AC00005E00B6A581C086218780B685860C88CBF
:102AD000401E80B2C88458B90868C06820F08000E1
:102AE0000B68D8600868C06840F040000B68D86088
:102AF000002070470220FCE72DE9F84304460D460C
:102B000017469846089E31E0701C70B3FDF7DAFF57
:102B1000A0EB0800B04200D816B90320BDE8F88346
:102B20002068C06800F00400F8B1802D1ED0402D50
:102B30001CD020680068C0F3C000B0B100BF002006
:102B4000009020680068009020684068009000BFF6
:102B500000BF2046FFF73DFE0820606400BF002054
:102B600084F8400000BF0120D8E7FFE72068006834
:102B70002840A84201D1012000E00020B842C3D083
:102B80000020CBE710B50248FEF7FEFF10BD0000A5
:102B90008400002000BFFEE71FB504464FF47A70A2
:102BA000012103AA0B46CDE9002102902246A12172
:102BB0000348FEF775F89DF80C0004B010BD000046
:102BC0003000002013B584B004464FF47A70012120
:102BD00005AA0B46CDE9002102902246A021024819
:102BE000FEF718FA06B010BD300000200FB4054BF8
:102BF00010B503A9044A029800F034F810BC5DF83F
:102C000014FB0000E52F00082C000020024800689B
:102C1000C0F30220704700000CED00E010B5002862
:102C200004DB0A07130E054A135406E00A07140EC4
:102C3000034A00F00F031B1FD45410BD00E400E052
:102C400018ED00E002E008C8121F08C1002AFAD1FE
:102C500070477047002001E001C1121F002AFBD11C
:102C6000704700002DE9FF4F8BB09A460F4605468E
:102C7000002606E025280BD052460D9990476D1C82
:102C8000761C28780028F5D10FB03046BDE8F08FCB
:102C90000024A0460122604900E0044315F8013FEA
:102CA000203B02FA03F00842F7D128782E2817D1EA
:102CB00015F8010F44F004042A280ED06FF02F02FB
:102CC0002878A0F1300109290AD808EB880102EB25
:102CD000410100EB01086D1CF2E757F8048B6D1CF5
:102CE000287869283ED006DC0028CDD063280BD098
:102CF000642804D136E0732810D075284BD0524692
:102D00000D999047761C85E017F8040B8DF80000AC
:102D100000208DF80100E946012003E057F8049BEC
:102D20004FF0FF3061074FF0000401D40AE0641C4B
:102D300044450DDA8442FADB19F804100029F6D173
:102D400006E0641C8442FCDB19F804100029F8D169
:102D5000264404E019F8010B52460D999047641E71
:102D6000F8D257E001CF4FF00A0B002802DA4042B8
:102D70002D2102E0210504D52B218DF824100121FD
:102D800003E0E10705D02021F7E70DF120090891C4
:102D90000CE00021F9E701CF4FF00A0BF9E75946A3
:102DA000FDF706FA01F1300209F8012D0028F6D1ED
:102DB000ADEB090000F1200B600701D44FF00108D2
:102DC000D84502DDA8EB0B0000E00020804600247F
:102DD00006E009A85246005D0D999047641C761CD8
:102DE00008988442F5DB04E0302052460D99904764
:102DF000761CB8F10001A8F10108F5DC05E019F82E
:102E0000010B52460D999047761CBBF10001ABF1C6
:102E1000010BF4DC6D1C34E70928010070B586B0A5
:102E200000240025002015E0154A0244154B1B68BC
:102E3000D15CFF290CD00124114A0244114B1B68BC
:102E40001A44104E36888319C3F30A03D51A05E0D5
:102E5000411C88B20C4909888842E5DB00BF64B197
:102E6000002002900120039004950590002001901D
:102E700001A902A8FDF796FB00BF06B070BD0000D7
:102E800000400008140000201000002070B500244D
:102E90001AE01048204410490968461834B90F4810
:102EA000005D0F49097841EA002505E0601E0B49E5
:102EB000085C095D40EA01252A46002331460120CD
:102EC000FDF7D2FBA01C84B2064800888442E0DBF8
:102ED00070BD00000040000814000020F000002039
:102EE000180000201000002070B5002418E00F48E2
:102EF00020440F4909684618601C0E490988884219
:102F00000CDA0D48015D0246601C105C41EA0025A8
:102F10002A46002331460120FDF7A6FBA01C84B2FF
:102F2000044800888442E2DB70BD000000400008D5
:102F30001400002010000020F000002010B52449EB
:102F40000988244A1278881800EBD0714910A0EB48
:102F50004101D1B91F48007850B1FFF797FF1E48D3
:102F600001681B480088401C08441B49086008E0B1
:102F7000FFF7BAFF18480068154909880844164940
:102F8000086000201349087020E01248007848B11A
:102F9000FFF77CFF104800680D49098808440E4976
:102FA000086009E0FFF7A0FF09480088401E0A49B1
:102FB000096808440849086005480088401E074918
:102FC000085C0749087001200249087010BD000024
:102FD000100000201900002014000020F000002044
:102FE0001800002013B50C464FF6FF730122694606
:102FF0000248FEF7C4FF00981CBD000084000020BA
:10300000FEF702F9FFF7A7FBFFF7E2FAFFF768FB0D
:10301000FFF748FB63210020FFF7D4FD0520FDF7F3
:10302000ADFA0020FFF7B8FD0446214602A0FFF7E5
:10303000DDFD00BFFEE7000025630000020304057C
:10304000060708090A0B0C0D0E0F101001020000F4
:103050000000000000000102030406070809000048
:103060000000010203040000883000080000002076
:1030700030000000442C0008B83000083000002068
:10308000C0060000542C00080000000010000000E2
:103090000100000000127A000000000000000000A3
:1030A0000000000000000000000000000000000020
:0830B000000000000000000018
:0400000508000131BD
:00000001FF
