:020000040800F2
:100000009006002049010008E11900082F19000896
:10001000DD19000859020008591E00080000000000
:10002000000000000000000000000000111A00089D
:100030005D02000800000000E5190008131A00081E
:100040006301000863010008630100086301000800
:1000500063010008630100086301000863010008F0
:1000600063010008630100086301000863010008E0
:1000700063010008630100086301000863010008D0
:1000800063010008630100086301000863010008C0
:1000900063010008630100086301000863010008B0
:1000A00063010008630100086301000863010008A0
:1000B0006301000863010008630100086301000890
:1000C0006301000863010008630100086301000880
:1000D00063010008491E000863010008630100086D
:1000E0006301000863010008630100086301000860
:1000F0006301000863010008630100086301000850
:10010000630100086301000863010008630100083F
:10011000630100086301000863010008630100082F
:10012000630100086301000863010008630100081F
:10013000DFF810D000F052F8004800470D22000808
:10014000AFF300809006002006488047064800472D
:10015000FEE7FEE7FEE7FEE7FEE7FEE7FEE7FEE777
:10016000FEE7FEE7811A000831010008202A04DBBF
:10017000203A21FA02F00021704721FA02F3D04020
:10018000C2F120029140084319467047D2B201E003
:1001900000F8012B491EFBD270470022F6E710B58C
:1001A00013460A4604461946FFF7F0FF204610BDE5
:1001B00030B50B46014600202022012409E021FA37
:1001C00002F59D4205D303FA02F5491B04FA02F534
:1001D0002844151EA2F10102F1DC30BD064C074D8A
:1001E00006E0E06840F0010394E807009847103407
:1001F000AC42F6D3FFF7A0FF742200089422000857
:1002000001490988018070471600002008B500BF29
:10021000002000900E480068006800900C480068BC
:100220004068009000BF00BF00BF00200090084859
:10023000006800680090064800684068009000BFB1
:1002400000BF4FF400720349014801F091F808BD66
:10025000240000209000002000BFFEE7704772B627
:1002600000BFFEE70021074AD1610749096941F053
:100270000401054A11611146096941F0400111610B
:100280007047000070000020002002400021074A53
:10029000D1610749096941F00201054A116111461E
:1002A0004861096941F04001116170477000002008
:1002B000002002400022054BDA61054A126942F033
:1002C0000102034B1A61018070470000700000209A
:1002D0000020024000201E49C96801F0100139B118
:1002E0001C49C96941F002011A4AD16140F010006D
:1002F0001749C96801F0040139B11649C96941F0CB
:100300000101144AD16140F004001149C96901F0AA
:10031000010169B10F49C96941F004010D4AD16178
:1003200000BF0B49C96921F00101094AD16100BF31
:1003300000BF40F20111884206D10549C96921F088
:100340000101034AD16101E00149C86000BF704763
:10035000002002407000002070B5044600F0C0FB91
:10036000054609E0601C38B124B100F0B9FB401B20
:10037000A04201D9032070BD1248C06800F00100FE
:100380000028EFD10F48C06800F0200020B100BF66
:1003900020200C49C86000BF0A48C06800F0100067
:1003A00048B90848C06900F0010020B90548C06894
:1003B00000F0040018B1FFF78DFF0120DBE70020FB
:1003C000D9E70000002002400146002291F82100F8
:1003D000022808D00420886300BF002081F8200094
:1003E00000BF012070470868006820F00E000B680D
:1003F00018600868006820F001000B68186091F828
:10040000403001209840CB6B5860012081F82100DA
:1004100000BF002081F8200000BF1046E2E7000086
:1004200070B50446002594F82100022803D004206A
:10043000A0630125C1E02068006820F00E0021685B
:1004400008602068006820F00100216808605C49AD
:100450002068884252D95A4978392068884201D1A7
:10046000012047E0564964392068884201D11020B4
:1004700040E0534950392068884201D1801539E065
:100480004F493C392068884201D1801432E04C4900
:1004900028392068884202D14FF480302AE0484948
:1004A00014392068884202D14FF4801022E0444978
:1004B0002068884201D140041CE0424920688842FB
:1004C00001D1012016E03F4914312068884201D152
:1004D00010200FE03B4928312068884201D1801567
:1004E00008E038493C312068884201D1801401E09D
:1004F0004FF480303349091F086051E030497839A2
:100500002068884201D1012047E02D4964392068E4
:10051000884201D1102040E02949503920688842A2
:1005200001D1801539E026493C392068884201D143
:10053000801432E0224928392068884202D14FF4E1
:1005400080302AE01E4914392068884202D14FF4D5
:10055000801022E01A492068884201D140041CE042
:1005600018492068884201D1012016E0154914314C
:100570002068884201D110200FE0124928312068FC
:10058000884201D1801508E00E493C31206888423C
:1005900001D1801401E04FF480300949803948606E
:1005A000012084F8210000BF002084F8200000BF53
:1005B000606B10B12046616B8847284670BD000013
:1005C000800002400804024070B5044600F088FA3A
:1005D00006462546681C10B104480078054400BF53
:1005E00000F07EFA801BA842FAD370BD0C000020F8
:1005F0002DE9F04104460E460127002500BF26489C
:10060000007E012802D10220BDE8F08101202249AC
:10061000087600BF2068022813D14CF25030FFF753
:100620009BFE90BB0120FFF71DFE4CF25030FFF700
:1006300093FE07461948006920F004001749086135
:1006400023E04CF25030FFF787FEF0B94FF0FF3057
:100650003060A56812E02846FFF718FE4CF25030D3
:10066000FFF77AFE07460D48006920F002000B49AB
:1006700008610FB1356007E005F50065D4E90210A7
:1006800001EBC020A842E6D800BF00BF002002490D
:10069000087600BF3846B7E770000020002002400F
:1006A0000348006940F0800001490861002070475C
:1006B000002002402DE9FE4F05468B46174698461E
:1006C000012600240020029000BF2448007E01285B
:1006D00002D10220BDE8FE8F01202049087600BF2C
:1006E0004CF25030FFF738FE064686BB012D02D192
:1006F0000120029006E0022D02D10220029001E0CA
:100700000420029000241EE02201B946C246484659
:100710005146FFF72BFD80B20190022000FB04B090
:1007200000900199FFF7C6FD4CF25030FFF714FE20
:1007300006460B48006920F001000949086106B12E
:1007400004E0601CC4B202988442DDDB00BF00BF3D
:1007500000200249087600BF3046BBE77000002049
:100760000020024000200849096901F0800151B1D0
:100770000649054A5160064951601146096901F070
:10078000800101B10120704700200240230167452C
:10079000AB89EFCD2DE9F847024600239C467BE16B
:1007A0004FF0010808FA03F4D1F8008008EA0400C9
:1007B000A0427DD1DFF8F4A2D1F80480A8EB0A09A9
:1007C000D0453AD014DCB8F1030F50D009DCB8F1B1
:1007D000000F31D0B8F1010F1CD0B8F1020F49D190
:1007E00020E0B8F1110F18D0B8F1120F42D11EE07D
:1007F000B9F5881F25D006DCB9F5803F20D0B9F5C2
:10080000801F37D11AE0B9F5001F18D0B9F5041FC1
:1008100030D117E0D1F80CC02DE0D1F80C8008F1F0
:10082000040C28E0D1F80C8008F1080C23E0D1F882
:100830000C8008F10C0C1EE000BF00BF00BF00BF21
:1008400000BF00BFD1F80880B8F1000F02D14FF00F
:10085000040C0BE0D1F80880B8F1010F03D14FF080
:10086000080C146102E04FF0080C546103E04FF0F3
:10087000000C00E000BF00BFFF2801D8904601E057
:1008800002F104084646FF2802D84FEA830803E035
:10089000A3F108084FEA88084746D6F800804FF0D1
:1008A0000F0909FA07F928EA09080CFA07F900E024
:1008B0007AE048EA0908C6F80080D1F8048008F018
:1008C0008058B8F1805F6FD100BFDFF8E481D8F8BD
:1008D000188048F00108DFF8D891C9F81880C84698
:1008E000D8F8188008F00108CDF8008000BF00BFDC
:1008F0004FEAB9384FEA930958F829504FEA8378FC
:100900004FEA18794FF00F0808FA09F825EA0805A8
:10091000DFF8A081424502D14FF0000824E0DFF863
:100920009881424502D14FF001081DE0DFF88C812B
:10093000424502D14FF0020816E0DFF884814245BB
:1009400002D14FF003080FE0DFF87881424502D171
:100950004FF0040808E0DFF87081424502D14FF003
:10096000050801E04FF006084FEA83794FEA19794C
:1009700008FA09F848EA0505DFF850814FEA9309BB
:1009800048F82950D1F8048008F48018B8F5801F81
:100990000BD1DFF83C81D8F8008048EA0008DFF886
:1009A0003091C9F800800AE075E0DFF82481D8F8BA
:1009B000008028EA0008DFF81891C9F80080D1F813
:1009C000048008F40018B8F5001F0ED1DFF800818C
:1009D00008F10408D8F8008048EA0008DFF8F09031
:1009E00009F10409C9F800800DE0DFF8E48008F19E
:1009F0000408D8F8008028EA0008DFF8D49009F14C
:100A00000409C9F80080D1F8048008F40038B8F56A
:100A1000003F0ED1DFF8B880A8F10408D8F80080B4
:100A200048EA0008DFF8A890A9F10409C9F8008095
:100A30000DE0DFF89C80A8F10408D8F8008028EACF
:100A40000008DFF88C90A9F10409C9F80080D1F8FA
:100A5000048008F48038B8F5803F0ED1DFF870804C
:100A6000A8F10808D8F8008048EA0008DFF860908C
:100A7000A9F10809C9F800800DE0DFF85480A8F159
:100A80000808D8F8008028EA0008DFF84490A9F1A7
:100A90000809C9F800805B1CD1F8008028FA03F827
:100AA000B8F1000F7FF47CAEBDE8F88700001110AC
:100AB0000010024000080140000C014000100140FD
:100AC0000014014000180140001C014008000140D2
:100AD000080401400AB1016101E00B0403617047A1
:100AE00001480068704700000400002003480068C7
:100AF0000349097808440149086070470400002050
:100B00000C00002010B50848006840F010000649AD
:100B10000860032000F0A8F80F2000F007F800F0AC
:100B20002BF8002010BD00000020024070B50446E4
:100B30000E4800784FF47A71B1FBF0F00C49096867
:100B4000B1FBF0F5284600F0F9FB08B1012070BDBB
:100B5000102C07D200222146501E00F047F805480D
:100B6000046001E00120F2E70020F0E70C00002023
:100B7000100000200800002008B500BF114880695F
:100B800040F001000F4988610846806900F00100CB
:100B9000009000BF00BF00BF0846C06940F0805011
:100BA000C8610846C06900F08050009000BF00BFD7
:100BB00000BF0549486820F0E06040F000704860E0
:100BC00000BF08BD00100240000001400146084679
:100BD000002809DB00F01F0301229A4043099B0013
:100BE00003F1E023C3F8002100BF70472DE9F05F57
:100BF00080460D461646002701F040F90746394663
:100C00002A46334601F00700C0F1070ABAF1040F83
:100C100002D94FF0040A01E0C0F1070AD14600F101
:100C2000040ABAF1070F02D24FF0000A01E0A0F166
:100C3000030AD4464FF0010A0AFA09FAAAF1010A96
:100C40000AEA020A0AFA0CFA4FF0010B0BFA0CFB43
:100C5000ABF1010B0BEA030B4AEA0B0421464046B9
:100C600001F014F9BDE8F09F00BF00F00702064B49
:100C700019684FF6FF031940044B0B4343EA022166
:100C8000014B196000BF70470CED00E00000FA0551
:100C900070B504460D460CB9012070BD5A48006875
:100CA00000F00700A8420ED25748006820F0070065
:100CB0002843554908600846006800F00700A8422C
:100CC00001D00120E9E7207800F0020002281DD1C0
:100CD000207800F00400042805D14C48406840F416
:100CE000E0604A494860207800F00800082805D1F3
:100CF0004648406840F46050444948604348406872
:100D000020F0F000A168084340494860207800F0D6
:100D1000010078B36068012806D13C48006800F4FF
:100D2000003090B90120B8E76068022806D1374842
:100D3000006800F0007040B90120AEE73348006859
:100D400000F0020008B90120A7E73048406820F011
:100D50000300616808432D494860FFF7C1FE06465D
:100D600009E0FFF7BDFE801B41F28831884202D9BD
:100D7000032092E707E02548406800F00C00616816
:100D8000B0EB810FEDD12048006800F00700A842C9
:100D90000ED91D48006820F0070028431A49086052
:100DA0000846006800F00700A84201D0012074E75F
:100DB000207800F00400042807D11448406820F48B
:100DC000E060E168084311494860207800F00800BD
:100DD000082808D10D48406820F46050216940EA95
:100DE000C1000A49486000F03FF808494968C1F36A
:100DF0000311074A515CC84006490860064800686C
:100E0000FFF794FE002048E7002002400010024057
:100E10005A22000810000020080000200148006845
:100E2000704700001000002000B5FFF7F7FF0449ED
:100E30004968C1F30221034A515CC84000BD00006B
:100E4000001002406A22000800B5FFF7E7FF0449DE
:100E50004968C1F3C221034A515CC84000BD00008B
:100E6000001002406A22000870B500210022002410
:100E700000230020134D696801F00C05F5B1042D25
:100E800002D0082D19D101E00F4819E00F4DC1F330
:100E90008346AB5D01F4803555B10A4D6D68C5F3ED
:100EA00040450B4E725D084D5D43B5FBF2F402E028
:100EB000084D03FB05F4204602E000BF024800BFD6
:100EC00000BF70BD0010024000127A0048220008E6
:100ED0005822000800093D00F8B504460CB901206D
:100EE000F8BD207800F00100002878D0F84840686C
:100EF00000F00C0004280CD0F548406800F00C000D
:100F0000082811D1F248406800F48030B0F5803FE5
:100F10000AD1EF48006800F4003000285FD0606814
:100F200000285CD10120DBE700BF6068B0F5803F9E
:100F300006D1E748006840F48030E549086028E0C1
:100F4000606858B9E248006820F48030E0490860E1
:100F50000846006820F4802008601AE06068B0F558
:100F6000A02F0BD1DA48006840F48020D8490860EF
:100F70000846006840F4803008600AE0D448006801
:100F800020F48030D24908600846006820F48020B0
:100F9000086000BF606888B1FFF7A2FD054606E063
:100FA000FFF79EFD401B642801D9032098E7C8483D
:100FB000006800F400300028F2D010E0FFF790FD48
:100FC000054606E0FFF78CFD401B642801D903208D
:100FD00086E7BF48006800F400300028F2D120788E
:100FE00000F00200022857D1B948406800F00C0018
:100FF00050B1B748406800F00C00082818D1B44838
:10100000406800F4803098B9B148006800F00200F0
:1010100020B12069012801D0012061E7AC480068B7
:1010200020F0F800616940EAC100A949086033E096
:101030002069E8B10120A7490860FFF751FD054686
:1010400006E0FFF74DFD401B022801D9032047E7CA
:101050009F48006800F002000028F2D09C48006819
:1010600020F0F800616940EAC1009949086013E086
:10107000002098490860FFF733FD054606E0FFF7BA
:101080002FFD401B022801D9032029E79048006862
:1010900000F002000028F2D1207800F008000828B3
:1010A0002DD1A069B8B101208B490860FFF718FD68
:1010B000054606E0FFF714FD401B022801D9032076
:1010C0000EE78348406A00F002000028F2D00120B9
:1010D00000F08AFC13E000207F490860FFF700FD64
:1010E000054606E0FFF7FCFC401B022801D903205F
:1010F000F6E67748406A00F002000028F2D1207836
:1011000000F00400042873D100277148C06900F082
:10111000805070B900BF6E48C06940F080506C4983
:10112000C8610846C06900F08050009000BF00BF51
:1011300001276A48006800F48070B0B96748006809
:1011400040F4807065490860FFF7CAFC054606E078
:10115000FFF7C6FC401B642801D90320C0E65F48A6
:10116000006800F480700028F2D000BFE068012819
:1011700006D15748006A40F001005549086227E04F
:10118000E06858B95248006A20F0010050490862EE
:101190000846006A20F00400086219E0E0680528AB
:1011A0000BD14B48006A40F00400494908620846E8
:1011B000006A40F0010008620AE04548006A20F039
:1011C0000100434908620846006A20F004000862F2
:1011D00000BFE068A0B1FFF783FC054609E0FFF718
:1011E0007FFC401B41F28831884202D9032077E618
:1011F00022E03748006A00F002000028EFD012E039
:10120000FFF76EFC054608E0FFF76AFC401B41F261
:101210008831884201D9032062E62D48006A00F037
:1012200002000028F0D1012F05D12948C06920F023
:1012300080502749C86100BFE069C8B324484068AE
:1012400000F00C00082860D0E069022848D1002096
:1012500020490866FFF744FC054606E0FFF740FC1E
:10126000401B022801D903203AE61948006800F023
:1012700000700028F2D1206AB0F5803F07D11448F1
:10128000406820F40030A168084311494860D4E95F
:10129000080108430E49496821F4741108430C49B8
:1012A000486001200B490866FFF71AFC054607E075
:1012B0003DE0FFF715FC401B022801D903200FE693
:1012C0000348006800F000700028F2D02FE0000012
:1012D0000010024000004242800442420070004080
:1012E000002014490866FFF7FBFB054606E0FFF700
:1012F000F7FB401B022801D90320F1E50E480068E6
:1013000000F000700028F2D111E0E069012800D15E
:10131000E6E50948466806F48031206A814204D136
:1013200006F47011606A814201D00120D8E50020E6
:10133000D6E50000000042420010024070B50446AD
:101340002546681EB0F1807F01D301200FE0681EA2
:101350004FF0E02148610F214FF0FF3000F096FD83
:1013600000204FF0E021886107200861002070BD57
:10137000F8B504460E46174694F8420020282ED1B0
:1013800006B10FB90120F8BD012020630020606381
:101390003A463146204600F0C1FC0546EDB9206BC7
:1013A000012819D100BF002000902068006800903B
:1013B00020684068009000BF00BF00BF00BF2168E8
:1013C0000C3151E8001F41F0100021680C3141E858
:1013D0000002002AF3D100E001252846D3E70220CD
:1013E000D1E7000038B505460C461D4928688842FB
:1013F00035D11C4804801C4800881A4909880844D3
:1014000019490880FFF7AEF900F00EFE00F09CFECF
:10141000FFF746F94FF400711448FEF7BEFE00BF17
:101420000020009012480068006800901048006892
:101430004068009000BF00BF00BF002000900C4833
:101440000068006800900A4800684068009000BF8B
:1014500000BF4FF4007205490548FFF789FF38BD0A
:1014600000380140140000201600002090000020E9
:1014700024000020704700002DE9F84F0446206842
:1014800005682068C668206847694FF00009CA46A9
:1014900005F00F09B9F1000F0AD105F0200038B1AD
:1014A00006F0200020B1204600F03BFBBDE8F88F9D
:1014B000B9F1000F7BD007F0010018B906F4907065
:1014C000002874D005F0010030B106F4807018B126
:1014D000606C40F00100606405F0040030B107F07A
:1014E000010018B1606C40F00200606405F0020079
:1014F00030B107F0010018B1606C40F00400606486
:1015000005F0080048B106F0200010B907F001000E
:1015100018B1606C40F008006064606C002845D031
:1015200005F0200028B106F0200010B1204600F0A0
:10153000F8FA20684069C0F3801A606C00F0080077
:1015400010B9BAF1000F2CD0204600F0A4FA2068A0
:10155000406900F0400000B300BF00BF21681431B3
:1015600051E8001F21F040002168143141E80002D9
:10157000002AF3D100BFE06B50B17748E16B4863BC
:10158000E06BFEF74DFF88B1E06B416B88470DE0E3
:101590002046FFF76FFF09E009E02046FFF76AFFEA
:1015A00004E02046FFF766FF002060647EE7206BC2
:1015B000012877D105F01000002873D006F0100044
:1015C0000028FAD000BF002000902068006800903A
:1015D00020684068009000BF00BF2068406900F0AC
:1015E000400000285FD0E06B006840681FFA80F878
:1015F000B8F1000F55D0A08D404552DDA4F82E80E3
:10160000E06B8069202843D000BF00BF21680C3107
:1016100051E8001F21F4807021680C3141E800027C
:10162000002AF3D100BF00BF00BF2168143151E888
:10163000001F21F001002168143141E80002002A56
:10164000F3D100BF00BF00BF2168143151E8001F73
:1016500021F040002168143141E80002002AF3D152
:1016600000BF202084F842000020206300BF00BF9C
:1016700021680C3151E8001F21F0100021680C3165
:1016800041E80002002AF3D100BFE06BFEF79CFEA8
:1016900002206063A08DE28D801A81B22046FFF7A0
:1016A000A1FE03E742E0A08DE18D401A1FFA80F809
:1016B000E08DD0B3B8F1000F37D000BF00BF216874
:1016C0000C3151E8001F21F4907021680C3141E881
:1016D0000002002AF3D100BF00BF00BF216814310F
:1016E00051E8001F21F001002168143141E8000297
:1016F000002AF3D100BF202084F84200002020639C
:1017000000BF00BF21680C3151E8001F21F010001C
:1017100021680C3141E80002002AF3D100BF022009
:10172000606341462046FFF75DFEBFE605F080009E
:1017300030B106F0800018B1204600F00FFBB5E68E
:1017400005F0400030B106F0400018B1204600F02E
:10175000D8F9ABE600BFA9E6831A000810B5044625
:101760000CB9012010BDA06900B100E000BF94F8E1
:10177000410028B9002084F84000204600F02AF8F3
:10178000242084F841002068C06820F400502168BB
:10179000C860204600F044FA2068006920F49040B8
:1017A000216808612068406920F02A0021684861AA
:1017B0002068C06840F400502168C8600020606460
:1017C000202084F8410084F842000020606300BFBC
:1017D000C8E7000010B586B00446002002900390D0
:1017E000049005901E492068884236D100BF1D48EC
:1017F000806940F480401B4988610846806900F494
:101800008040019000BF00BF00BF0846806940F0E3
:10181000040088610846806900F00400019000BF60
:1018200000BF48150290022003900320059002A9F2
:101830000D48FEF7AFFF4FF4806002900020039048
:10184000049002A90848FEF7A5FF002205212520E3
:10185000FFF7CCF92520FFF7B9F906B010BD00005D
:1018600000380140001002400008014070472DE997
:10187000F84F04460E46174699464FF0000A94F872
:101880004100202850D106B117B90120BDE8F88FDA
:1018900000206064212084F84100FFF721F982468E
:1018A000A784E784A068B0F5805F04D1206910B9EF
:1018B0000025B04602E035464FF000081EE05346D2
:1018C000002280212046CDF8009000F077FA20B168
:1018D000202084F841000320D8E745B9B8F800007B
:1018E000C0F308002168486008F1020803E0287886
:1018F000216848606D1CE08C401EE084E08C00286C
:10190000DDD15346002240212046CDF8009000F062
:1019100055FA20B1202084F841000320B6E72020AA
:1019200084F841000020B1E70220AFE7704700BF14
:10193000FEE7000000B585B0002001900290039002
:10194000049000BF1548806940F010001349886179
:101950000846806900F01000009000BF00BF00BF83
:101960000846806940F0040088610846806900F0FC
:101970000400009000BF00BF012211460848FFF795
:10198000A9F8012001900290002003900220049009
:1019900001A90348FEF7FEFE05B000BD001002409D
:1019A0000008014010B50B480B4908604FF4E130C6
:1019B0004860002108488160C16001610C214161DB
:1019C00000218161C161FFF7C9FE08B1FEF747FC44
:1019D00010BD0000003801402400002000BFFEE7D9
:1019E00000BFFEE77047000008B508490968C9084C
:1019F0004FF47A72B1FBF2F14143009100BF00BF96
:101A000000994A1E00920029F9D108BD100000205B
:101A1000704710B5FFF76AF810BD00B58FB02821E8
:101A200005A8FEF7BAFB14216846FEF7B6FB0120B5
:101A300005900004069000200790012009900220E4
:101A40000C90C1030D914FF4E0110E9105A8FFF722
:101A500043FA08B1FEF703FC0F200090022001902A
:101A6000002002904FF48060039000200490022137
:101A70006846FFF70DF908B1FEF7F1FB0FB000BDA6
:101A8000704770B505466C6A0020E085E08420460A
:101A9000FFF7F0FC70BD00BF00BF02680C3252E8D7
:101AA000002F22F4907102680C3242E80013002BE0
:101AB000F3D100BF00BF00BF0268143252E8002F0C
:101AC00022F001010268143242E80013002BF3D126
:101AD00000BF016B01290ED100BF00BF02680C32AC
:101AE00052E8002F22F0100102680C3242E8001385
:101AF000002BF3D100BF202180F8421000210163A8
:101B0000704710B504462068C06820F04000216886
:101B1000C860202084F841002046FFF707FF00201E
:101B200010BDF8B5044694F84200222875D1A0688B
:101B3000B0F5805F0CD1206950B90025A66A2068F5
:101B40004068C0F308003080A06A801CA06215E0E5
:101B5000A56A0026A068B0F5805F03D0A06828B908
:101B6000206918B920684068287004E0206840683F
:101B700000F07F002870A06A401CA062E08D401E2B
:101B800080B2E085002846D12068C06820F020009F
:101B90002168C8602068C06820F480702168C8602F
:101BA0002068406920F0010021684861202084F805
:101BB000420000206063206B012826D100202063B2
:101BC00000BF00BF21680C3151E8001F21F0100058
:101BD00021680C3141E80002002AF3D100BF2068DF
:101BE000006800F0100010280AD100BF002000900B
:101BF00020680068009020684068009000BF00BF27
:101C0000A18D2046FFF7EEFB02E02046FFF72EFEF7
:101C10000020F8BD01E00020FBE70220F9E700000A
:101C200070B504462168096921F44051E268114306
:101C3000226811612269A1681143626941EA0205C3
:101C40002168C96841F20C62914329432268D1603E
:101C50002168496921F44071A269114322685161E8
:101C60002D4A2168914202D1FFF7EEF801E0FFF71B
:101C7000DBF800EBC00101EB001162689200B1FBE0
:101C8000F2F100EBC00202EB001263689B00B2FBB2
:101C9000F3F26423B2FBF3F202EBC20303EB021292
:101CA000A1EB8201322202EB01116422B1FBF2F1BD
:101CB00001F0F00100EBC00202EB001263689B0030
:101CC000B2FBF3F26423B2FBF3F201EB021200EB7E
:101CD000C00101EB001163689B00B1FBF3F100EB65
:101CE000C00303EB00136668B600B3FBF6F364268B
:101CF000B3FBF6F303EBC30606EB0313A1EB83017F
:101D0000322303EB01116423B1FBF3F101F00F0166
:101D100011442268916070BD0038014010B503463F
:101D200099629A85DA8500205864222083F842005F
:101D3000186928B11868C06840F480701C68E060B9
:101D40001868406940F001001C6860611868C0684C
:101D500040F020001C68E060002010BD014691F8B2
:101D60004100212828D18868B0F5805F0BD108692F
:101D700048B90A6A1088C0F308000B685860086AFE
:101D8000801C086205E00B6A581C086218780B6812
:101D90005860C88C401E80B2C88458B90868C068B2
:101DA00020F080000B68D8600868C06840F04000F0
:101DB0000B68D860002070470220FCE72DE9F8434B
:101DC00004460D4617469846089E31E0701C70B3D5
:101DD000FEF786FEA0EB0800B04200D816B903203B
:101DE000BDE8F8832068C06800F00400F8B1802DD9
:101DF0001ED0402D1CD020680068C0F3C000B0B1D8
:101E000000BF0020009020680068009020684068B3
:101E1000009000BF00BF2046FFF73DFE0820606431
:101E200000BF002084F8400000BF0120D8E7FFE792
:101E3000206800682840A84201D1012000E000206D
:101E4000B842C3D00020CBE710B50248FFF714FB1F
:101E500010BD00002400002000BFFEE70FB4054BBA
:101E600010B503A9044A029800F034F810BC5DF8DC
:101E700014FB0000F1210008200000200248006847
:101E8000C0F30220704700000CED00E010B5002800
:101E900004DB0A07130E054A135406E00A07140E62
:101EA000034A00F00F031B1FD45410BD00E400E0F0
:101EB00018ED00E002E008C8121F08C1002AFAD19C
:101EC00070477047002001E001C1121F002AFBD1BA
:101ED000704700002DE9FF4F89B09B46044600255E
:101EE00006E025280BD05A460B999047641C6D1CC0
:101EF00020780028F5D10DB02846BDE8F08F0027E6
:101F0000B8460122474900E0074314F8013F203B4F
:101F100002FA03F00842F7D120782E2819D114F8DC
:101F2000010F47F004072A280ED06FF02F02207807
:101F3000A0F1300109290CD808EB880102EB41011E
:101F400000EB0108641CF2E70A98641C50F8048B4B
:101F50000A9020780028CED0642808D0692806D0BE
:101F600075281ED05A460B9990476D1C58E00A9967
:101F70004FF00A0901C90A91002802DA40422D21D6
:101F800002E0390504D52B218DF82010012103E052
:101F9000F90704D02021F7E78A4608AE0DE00021BA
:101FA000FAE70A994FF00A0901C90A91F7E7494689
:101FB000FEF7FEF8303106F8011D0028F7D1ADEB31
:101FC000060000F12009780701D44FF00108C84548
:101FD00002DDA8EB090000E000208046002706E0B3
:101FE00008A85A46C05D0B9990476D1C7F1C574549
:101FF000F6DB04E030205A460B9990476D1CB8F18F
:102000000001A8F10108F5DC05E016F8010B5A46BD
:102010000B9990476D1CB9F10001A9F10109F4DC9D
:10202000641C65E70928010070B586B0002400250E
:10203000002015E0154A0244154B1B68D15CFF29AE
:102040000CD00124114A0244114B1B681A44104E53
:1020500036888319C3F30A03D51A05E0411C88B2F8
:102060000C4909888842E5DB00BF64B1002002907A
:1020700001200390049505900020019001A902A879
:10208000FEF7B6FA00BF06B070BD000000400008C1
:10209000180000201400002070B500241AE0104839
:1020A000204410490968461834B90F48005D0F49AB
:1020B000097841EA002505E0601E0B49085C095DCE
:1020C00040EA01252A46002331460120FEF7F2FAB4
:1020D000A01C84B2064800888442E0DB70BD00008A
:1020E0000040000818000020900000201C00002084
:1020F0001400002070B5002418E00F4820440F4958
:1021000009684618601C0E49098888420CDA0D4897
:10211000015D0246601C105C41EA00252A4600234E
:1021200031460120FEF7C6FAA01C84B2044800889C
:102130008442E2DB70BD000000400008180000206F
:10214000140000209000002010B524490988244A7A
:102150001278881800EBD0714910A0EB4101D1B979
:102160001F48007850B1FFF797FF1E4801681B48D1
:102170000088401C08441B49086008E0FFF7BAFFCC
:102180001848006815490988084416490860002065
:102190001349087020E01248007848B1FFF77CFF2F
:1021A000104800680D49098808440E49086009E094
:1021B000FFF7A0FF09480088401E0A490968084443
:1021C0000849086005480088401E0749085C07491F
:1021D000087001200249087010BD000014000020A2
:1021E0001D00002018000020900000201C0000208E
:1021F00013B50C464FF6FF73012269460248FFF7FC
:1022000036FB00981CBD000024000020FEF77AFC7D
:10221000FFF703FCFFF78EFBFFF7C4FBFDF7F6FFAC
:102220000BE041F28830FEF7CFF90448FDF7E8FFF4
:102230000248018802A0FFF711FEF2E7000000202B
:10224000627566663A2564000203040506070809FC
:102250000A0B0C0D0E0F1010010200000000000010
:102260000000010203040607080900000000010243
:102270000304000094220008000000202400000055
:10228000B41E0008B8220008240000206C060000DC
:10229000C41E000800000000000000001000000044
:1022A0000100000000127A000000000000000000A1
:0822B000000000000000000026
:0400000508000131BD
:00000001FF
